{"abi":[{"inputs":[{"internalType":"address","name":"_dappTokenAddress","type":"address"}],"stateMutability":"nonpayable","type":"constructor","name":"constructor"},{"anonymous":false,"inputs":[{"indexed":true,"internalType":"address","name":"previousOwner","type":"address"},{"indexed":true,"internalType":"address","name":"newOwner","type":"address"}],"name":"OwnershipTransferred","type":"event"},{"inputs":[{"internalType":"address","name":"_tokenAddress","type":"address"}],"name":"addAllowedTokens","outputs":[],"stateMutability":"nonpayable","type":"function"},{"inputs":[{"internalType":"uint256","name":"","type":"uint256"}],"name":"allowedTokens","outputs":[{"internalType":"address","name":"","type":"address"}],"stateMutability":"view","type":"function"},{"inputs":[],"name":"dappToken","outputs":[{"internalType":"contract IERC20","name":"","type":"address"}],"stateMutability":"view","type":"function"},{"inputs":[{"internalType":"address","name":"_user","type":"address"},{"internalType":"address","name":"_tokenAddress","type":"address"}],"name":"getSingleTokenValue","outputs":[{"internalType":"uint256","name":"","type":"uint256"}],"stateMutability":"nonpayable","type":"function"},{"inputs":[{"internalType":"address","name":"_userAddress","type":"address"}],"name":"getUserTotalValue","outputs":[{"internalType":"uint256","name":"","type":"uint256"}],"stateMutability":"nonpayable","type":"function"},{"inputs":[],"name":"issueTokens","outputs":[],"stateMutability":"nonpayable","type":"function"},{"inputs":[],"name":"owner","outputs":[{"internalType":"address","name":"","type":"address"}],"stateMutability":"view","type":"function"},{"inputs":[],"name":"renounceOwnership","outputs":[],"stateMutability":"nonpayable","type":"function"},{"inputs":[{"internalType":"address","name":"_token","type":"address"},{"internalType":"address","name":"_priceFeed","type":"address"}],"name":"setPriceFeedContract","outputs":[],"stateMutability":"nonpayable","type":"function"},{"inputs":[{"internalType":"uint256","name":"_amount","type":"uint256"},{"internalType":"address","name":"_tokenAddress","type":"address"}],"name":"stakeTokens","outputs":[],"stateMutability":"nonpayable","type":"function"},{"inputs":[{"internalType":"uint256","name":"","type":"uint256"}],"name":"stakers","outputs":[{"internalType":"address","name":"","type":"address"}],"stateMutability":"view","type":"function"},{"inputs":[{"internalType":"address","name":"","type":"address"},{"internalType":"address","name":"","type":"address"}],"name":"stakingBalance","outputs":[{"internalType":"uint256","name":"","type":"uint256"}],"stateMutability":"view","type":"function"},{"inputs":[{"internalType":"address","name":"","type":"address"}],"name":"tokenToPriceFeedAddress","outputs":[{"internalType":"address","name":"","type":"address"}],"stateMutability":"view","type":"function"},{"inputs":[{"internalType":"address","name":"newOwner","type":"address"}],"name":"transferOwnership","outputs":[],"stateMutability":"nonpayable","type":"function"},{"inputs":[{"internalType":"address","name":"","type":"address"}],"name":"uniqueTokensStaked","outputs":[{"internalType":"uint256","name":"","type":"uint256"}],"stateMutability":"view","type":"function"},{"inputs":[{"internalType":"address","name":"_tokenAddress","type":"address"}],"name":"unstakeTokens","outputs":[],"stateMutability":"nonpayable","type":"function"}],"bytecode":"608060405234801561001057600080fd5b50604051610f7d380380610f7d83398101604081905261002f916100ad565b6100383361005d565b600680546001600160a01b0319166001600160a01b03929092169190911790556100dd565b600080546001600160a01b038381166001600160a01b0319831681178455604051919092169283917f8be0079c531659141344cd1fd0a4f28419497f9722a3daafe3b4186f6b6457e09190a35050565b6000602082840312156100bf57600080fd5b81516001600160a01b03811681146100d657600080fd5b9392505050565b610e91806100ec6000396000f3fe608060405234801561001057600080fd5b50600436106101005760003560e01c8063715018a611610097578063b83e023411610066578063b83e023414610216578063f2fde38b14610236578063f40f1d9414610249578063fd5e6dd11461027257600080fd5b8063715018a6146101d7578063877dd39d146101df5780638da5cb5b146101f2578063af3f5e221461020357600080fd5b80633ec4113b116100d35780633ec4113b1461017e5780635e5f2e26146101915780635eb186f8146101bc57806360ab5852146101cf57600080fd5b80630bea440d14610105578063171e44ea1461011a57806329161a001461012d5780632d1ad8b81461016b575b600080fd5b610118610113366004610b76565b610285565b005b610118610128366004610ba2565b610488565b61015861013b366004610bc4565b600260209081526000928352604080842090915290825290205481565b6040519081526020015b60405180910390f35b610118610179366004610ba2565b6104e1565b61015861018c366004610bc4565b6105c2565b6101a461019f366004610bee565b610650565b6040516001600160a01b039091168152602001610162565b6006546101a4906001600160a01b031681565b61011861067a565b610118610755565b6101186101ed366004610bc4565b610769565b6000546001600160a01b03166101a4565b610158610211366004610ba2565b61079f565b610158610224366004610ba2565b60036020526000908152604090205481565b610118610244366004610ba2565b61085d565b6101a4610257366004610ba2565b6004602052600090815260409020546001600160a01b031681565b6101a4610280366004610bee565b6108d3565b600082116102ec5760405162461bcd60e51b815260206004820152602960248201527f596f75206861766520746f2061646420616e20616d6f756e742067726561746560448201526839103a3430b710181760b91b60648201526084015b60405180910390fd5b6102f5816108e3565b6103415760405162461bcd60e51b815260206004820152601b60248201527f5468697320746f6b656e2063616e2774206265207374616b65642e000000000060448201526064016102e3565b6001600160a01b0381166323b872dd336040516001600160e01b031960e084901b1681526001600160a01b039091166004820152306024820152604481018590526064016020604051808303816000875af11580156103a4573d6000803e3d6000fd5b505050506040513d601f19601f820116820180604052508101906103c89190610c07565b506001600160a01b03811660009081526002602090815260408083203384529091529020546103f8908390610c3f565b6001600160a01b03821660009081526002602090815260408083203380855292529091209190915561042a908261094c565b3360009081526003602052604090205460010361048457600580546001810182556000919091527f036b6384b5eca791c62761152d0c79bb0604c104a5fb6f4eb0703f3154bb3db00180546001600160a01b031916331790555b5050565b6104906109b0565b6001805480820182556000919091527fb10e2d527612073b26eecdfd717e6a320cf44b4afac2b0732d9fcbe2b7fa0cf60180546001600160a01b0319166001600160a01b0392909216919091179055565b6001600160a01b03811660008181526002602090815260408083203380855290835281842054825163a9059cbb60e01b8152600481019290925260248201819052915191948694909363a9059cbb936044808501949293919283900301908290875af1158015610555573d6000803e3d6000fd5b505050506040513d601f19601f820116820180604052508101906105799190610c07565b506001600160a01b03831660009081526002602090815260408083203384528252808320839055600390915281208054600192906105b8908490610c57565b9091555050505050565b6001600160a01b0382166000908152600360205260408120546105e75750600061064a565b6000806105f384610a0a565b6001600160a01b038087166000908152600260209081526040808320938b168352929052908120549294509092509061062d908490610c6e565b905061063a82600a610d71565b6106449082610d7d565b93505050505b92915050565b6001818154811061066057600080fd5b6000918252602090912001546001600160a01b0316905081565b6106826109b0565b60005b600554811015610752576000600582815481106106a4576106a4610d9f565b60009182526020822001546001600160a01b031691506106c38261079f565b60065460405163a9059cbb60e01b81526001600160a01b0385811660048301526024820184905292935091169063a9059cbb906044016020604051808303816000875af1158015610718573d6000803e3d6000fd5b505050506040513d601f19601f8201168201806040525081019061073c9190610c07565b505050808061074a90610db5565b915050610685565b50565b61075d6109b0565b6107676000610b0a565b565b6107716109b0565b6001600160a01b03918216600090815260046020526040902080546001600160a01b03191691909216179055565b6001600160a01b03811660009081526003602052604081205481906107fa5760405162461bcd60e51b81526020600482015260116024820152702737903a37b5b2b7399039ba30b5b2b21760791b60448201526064016102e3565b60005b60015481101561085657610838846001838154811061081e5761081e610d9f565b6000918252602090912001546001600160a01b03166105c2565b6108429083610c3f565b91508061084e81610db5565b9150506107fd565b5092915050565b6108656109b0565b6001600160a01b0381166108ca5760405162461bcd60e51b815260206004820152602660248201527f4f776e61626c653a206e6577206f776e657220697320746865207a65726f206160448201526564647265737360d01b60648201526084016102e3565b61075281610b0a565b6005818154811061066057600080fd5b6000805b60015481101561094357826001600160a01b03166001828154811061090e5761090e610d9f565b6000918252602090912001546001600160a01b0316036109315750600192915050565b8061093b81610db5565b9150506108e7565b50600092915050565b6109546109b0565b6001600160a01b03808316600090815260026020908152604080832093851683529290522054610484576001600160a01b03821660009081526003602052604081208054600192906109a7908490610c3f565b90915550505050565b6000546001600160a01b031633146107675760405162461bcd60e51b815260206004820181905260248201527f4f776e61626c653a2063616c6c6572206973206e6f7420746865206f776e657260448201526064016102e3565b6001600160a01b038082166000908152600460208190526040808320548151633fabe5a360e21b815291519394859491169283928592849263feaf968c928082019260a09290918290030181865afa158015610a6a573d6000803e3d6000fd5b505050506040513d601f19601f82011682018060405250810190610a8e9190610de8565b5050509150506000826001600160a01b031663313ce5676040518163ffffffff1660e01b8152600401602060405180830381865afa158015610ad4573d6000803e3d6000fd5b505050506040513d601f19601f82011682018060405250810190610af89190610e38565b919760ff909216965090945050505050565b600080546001600160a01b038381166001600160a01b0319831681178455604051919092169283917f8be0079c531659141344cd1fd0a4f28419497f9722a3daafe3b4186f6b6457e09190a35050565b80356001600160a01b0381168114610b7157600080fd5b919050565b60008060408385031215610b8957600080fd5b82359150610b9960208401610b5a565b90509250929050565b600060208284031215610bb457600080fd5b610bbd82610b5a565b9392505050565b60008060408385031215610bd757600080fd5b610be083610b5a565b9150610b9960208401610b5a565b600060208284031215610c0057600080fd5b5035919050565b600060208284031215610c1957600080fd5b81518015158114610bbd57600080fd5b634e487b7160e01b600052601160045260246000fd5b60008219821115610c5257610c52610c29565b500190565b600082821015610c6957610c69610c29565b500390565b6000816000190483118215151615610c8857610c88610c29565b500290565b600181815b80851115610cc8578160001904821115610cae57610cae610c29565b80851615610cbb57918102915b93841c9390800290610c92565b509250929050565b600082610cdf5750600161064a565b81610cec5750600061064a565b8160018114610d025760028114610d0c57610d28565b600191505061064a565b60ff841115610d1d57610d1d610c29565b50506001821b61064a565b5060208310610133831016604e8410600b8410161715610d4b575081810a61064a565b610d558383610c8d565b8060001904821115610d6957610d69610c29565b029392505050565b6000610bbd8383610cd0565b600082610d9a57634e487b7160e01b600052601260045260246000fd5b500490565b634e487b7160e01b600052603260045260246000fd5b600060018201610dc757610dc7610c29565b5060010190565b805169ffffffffffffffffffff81168114610b7157600080fd5b600080600080600060a08688031215610e0057600080fd5b610e0986610dce565b9450602086015193506040860151925060608601519150610e2c60808701610dce565b90509295509295909350565b600060208284031215610e4a57600080fd5b815160ff81168114610bbd57600080fdfea2646970667358221220ec9020162397e95c37c6b7340bb562fbb89ca59e4f4c94cf41eafac4cfd099f264736f6c634300080f0033","bytecodeSha1":"63ab34c412bec81dd284f1496b945183a7613502","compiler":{"evm_version":"istanbul","optimizer":{"enabled":true,"runs":200},"version":"0.8.15+commit.e14f2714"},"contractName":"TokenFarm","language":"Solidity","natspec":{"kind":"dev","methods":{"owner()":{"details":"Returns the address of the current owner."},"renounceOwnership()":{"details":"Leaves the contract without owner. It will not be possible to call `onlyOwner` functions anymore. Can only be called by the current owner. NOTE: Renouncing ownership will leave the contract without an owner, thereby removing any functionality that is only available to the owner."},"transferOwnership(address)":{"details":"Transfers ownership of the contract to a new account (`newOwner`). Can only be called by the current owner."}},"version":1},"opcodes":"PUSH1 0x80 PUSH1 0x40 MSTORE CALLVALUE DUP1 ISZERO PUSH2 0x10 JUMPI PUSH1 0x0 DUP1 REVERT JUMPDEST POP PUSH1 0x4 CALLDATASIZE LT PUSH2 0x100 JUMPI PUSH1 0x0 CALLDATALOAD PUSH1 0xE0 SHR DUP1 PUSH4 0x715018A6 GT PUSH2 0x97 JUMPI DUP1 PUSH4 0xB83E0234 GT PUSH2 0x66 JUMPI DUP1 PUSH4 0xB83E0234 EQ PUSH2 0x216 JUMPI DUP1 PUSH4 0xF2FDE38B EQ PUSH2 0x236 JUMPI DUP1 PUSH4 0xF40F1D94 EQ PUSH2 0x249 JUMPI DUP1 PUSH4 0xFD5E6DD1 EQ PUSH2 0x272 JUMPI PUSH1 0x0 DUP1 REVERT JUMPDEST DUP1 PUSH4 0x715018A6 EQ PUSH2 0x1D7 JUMPI DUP1 PUSH4 0x877DD39D EQ PUSH2 0x1DF JUMPI DUP1 PUSH4 0x8DA5CB5B EQ PUSH2 0x1F2 JUMPI DUP1 PUSH4 0xAF3F5E22 EQ PUSH2 0x203 JUMPI PUSH1 0x0 DUP1 REVERT JUMPDEST DUP1 PUSH4 0x3EC4113B GT PUSH2 0xD3 JUMPI DUP1 PUSH4 0x3EC4113B EQ PUSH2 0x17E JUMPI DUP1 PUSH4 0x5E5F2E26 EQ PUSH2 0x191 JUMPI DUP1 PUSH4 0x5EB186F8 EQ PUSH2 0x1BC JUMPI DUP1 PUSH4 0x60AB5852 EQ PUSH2 0x1CF JUMPI PUSH1 0x0 DUP1 REVERT JUMPDEST DUP1 PUSH4 0xBEA440D EQ PUSH2 0x105 JUMPI DUP1 PUSH4 0x171E44EA EQ PUSH2 0x11A JUMPI DUP1 PUSH4 0x29161A00 EQ PUSH2 0x12D JUMPI DUP1 PUSH4 0x2D1AD8B8 EQ PUSH2 0x16B JUMPI JUMPDEST PUSH1 0x0 DUP1 REVERT JUMPDEST PUSH2 0x118 PUSH2 0x113 CALLDATASIZE PUSH1 0x4 PUSH2 0xB76 JUMP JUMPDEST PUSH2 0x285 JUMP JUMPDEST STOP JUMPDEST PUSH2 0x118 PUSH2 0x128 CALLDATASIZE PUSH1 0x4 PUSH2 0xBA2 JUMP JUMPDEST PUSH2 0x488 JUMP JUMPDEST PUSH2 0x158 PUSH2 0x13B CALLDATASIZE PUSH1 0x4 PUSH2 0xBC4 JUMP JUMPDEST PUSH1 0x2 PUSH1 0x20 SWAP1 DUP2 MSTORE PUSH1 0x0 SWAP3 DUP4 MSTORE PUSH1 0x40 DUP1 DUP5 KECCAK256 SWAP1 SWAP2 MSTORE SWAP1 DUP3 MSTORE SWAP1 KECCAK256 SLOAD DUP2 JUMP JUMPDEST PUSH1 0x40 MLOAD SWAP1 DUP2 MSTORE PUSH1 0x20 ADD JUMPDEST PUSH1 0x40 MLOAD DUP1 SWAP2 SUB SWAP1 RETURN JUMPDEST PUSH2 0x118 PUSH2 0x179 CALLDATASIZE PUSH1 0x4 PUSH2 0xBA2 JUMP JUMPDEST PUSH2 0x4E1 JUMP JUMPDEST PUSH2 0x158 PUSH2 0x18C CALLDATASIZE PUSH1 0x4 PUSH2 0xBC4 JUMP JUMPDEST PUSH2 0x5C2 JUMP JUMPDEST PUSH2 0x1A4 PUSH2 0x19F CALLDATASIZE PUSH1 0x4 PUSH2 0xBEE JUMP JUMPDEST PUSH2 0x650 JUMP JUMPDEST PUSH1 0x40 MLOAD PUSH1 0x1 PUSH1 0x1 PUSH1 0xA0 SHL SUB SWAP1 SWAP2 AND DUP2 MSTORE PUSH1 0x20 ADD PUSH2 0x162 JUMP JUMPDEST PUSH1 0x6 SLOAD PUSH2 0x1A4 SWAP1 PUSH1 0x1 PUSH1 0x1 PUSH1 0xA0 SHL SUB AND DUP2 JUMP JUMPDEST PUSH2 0x118 PUSH2 0x67A JUMP JUMPDEST PUSH2 0x118 PUSH2 0x755 JUMP JUMPDEST PUSH2 0x118 PUSH2 0x1ED CALLDATASIZE PUSH1 0x4 PUSH2 0xBC4 JUMP JUMPDEST PUSH2 0x769 JUMP JUMPDEST PUSH1 0x0 SLOAD PUSH1 0x1 PUSH1 0x1 PUSH1 0xA0 SHL SUB AND PUSH2 0x1A4 JUMP JUMPDEST PUSH2 0x158 PUSH2 0x211 CALLDATASIZE PUSH1 0x4 PUSH2 0xBA2 JUMP JUMPDEST PUSH2 0x79F JUMP JUMPDEST PUSH2 0x158 PUSH2 0x224 CALLDATASIZE PUSH1 0x4 PUSH2 0xBA2 JUMP JUMPDEST PUSH1 0x3 PUSH1 0x20 MSTORE PUSH1 0x0 SWAP1 DUP2 MSTORE PUSH1 0x40 SWAP1 KECCAK256 SLOAD DUP2 JUMP JUMPDEST PUSH2 0x118 PUSH2 0x244 CALLDATASIZE PUSH1 0x4 PUSH2 0xBA2 JUMP JUMPDEST PUSH2 0x85D JUMP JUMPDEST PUSH2 0x1A4 PUSH2 0x257 CALLDATASIZE PUSH1 0x4 PUSH2 0xBA2 JUMP JUMPDEST PUSH1 0x4 PUSH1 0x20 MSTORE PUSH1 0x0 SWAP1 DUP2 MSTORE PUSH1 0x40 SWAP1 KECCAK256 SLOAD PUSH1 0x1 PUSH1 0x1 PUSH1 0xA0 SHL SUB AND DUP2 JUMP JUMPDEST PUSH2 0x1A4 PUSH2 0x280 CALLDATASIZE PUSH1 0x4 PUSH2 0xBEE JUMP JUMPDEST PUSH2 0x8D3 JUMP JUMPDEST PUSH1 0x0 DUP3 GT PUSH2 0x2EC JUMPI PUSH1 0x40 MLOAD PUSH3 0x461BCD PUSH1 0xE5 SHL DUP2 MSTORE PUSH1 0x20 PUSH1 0x4 DUP3 ADD MSTORE PUSH1 0x29 PUSH1 0x24 DUP3 ADD MSTORE PUSH32 0x596F75206861766520746F2061646420616E20616D6F756E7420677265617465 PUSH1 0x44 DUP3 ADD MSTORE PUSH9 0x39103A3430B7101817 PUSH1 0xB9 SHL PUSH1 0x64 DUP3 ADD MSTORE PUSH1 0x84 ADD JUMPDEST PUSH1 0x40 MLOAD DUP1 SWAP2 SUB SWAP1 REVERT JUMPDEST PUSH2 0x2F5 DUP2 PUSH2 0x8E3 JUMP JUMPDEST PUSH2 0x341 JUMPI PUSH1 0x40 MLOAD PUSH3 0x461BCD PUSH1 0xE5 SHL DUP2 MSTORE PUSH1 0x20 PUSH1 0x4 DUP3 ADD MSTORE PUSH1 0x1B PUSH1 0x24 DUP3 ADD MSTORE PUSH32 0x5468697320746F6B656E2063616E2774206265207374616B65642E0000000000 PUSH1 0x44 DUP3 ADD MSTORE PUSH1 0x64 ADD PUSH2 0x2E3 JUMP JUMPDEST PUSH1 0x1 PUSH1 0x1 PUSH1 0xA0 SHL SUB DUP2 AND PUSH4 0x23B872DD CALLER PUSH1 0x40 MLOAD PUSH1 0x1 PUSH1 0x1 PUSH1 0xE0 SHL SUB NOT PUSH1 0xE0 DUP5 SWAP1 SHL AND DUP2 MSTORE PUSH1 0x1 PUSH1 0x1 PUSH1 0xA0 SHL SUB SWAP1 SWAP2 AND PUSH1 0x4 DUP3 ADD MSTORE ADDRESS PUSH1 0x24 DUP3 ADD MSTORE PUSH1 0x44 DUP2 ADD DUP6 SWAP1 MSTORE PUSH1 0x64 ADD PUSH1 0x20 PUSH1 0x40 MLOAD DUP1 DUP4 SUB DUP2 PUSH1 0x0 DUP8 GAS CALL ISZERO DUP1 ISZERO PUSH2 0x3A4 JUMPI RETURNDATASIZE PUSH1 0x0 DUP1 RETURNDATACOPY RETURNDATASIZE PUSH1 0x0 REVERT JUMPDEST POP POP POP POP PUSH1 0x40 MLOAD RETURNDATASIZE PUSH1 0x1F NOT PUSH1 0x1F DUP3 ADD AND DUP3 ADD DUP1 PUSH1 0x40 MSTORE POP DUP2 ADD SWAP1 PUSH2 0x3C8 SWAP2 SWAP1 PUSH2 0xC07 JUMP JUMPDEST POP PUSH1 0x1 PUSH1 0x1 PUSH1 0xA0 SHL SUB DUP2 AND PUSH1 0x0 SWAP1 DUP2 MSTORE PUSH1 0x2 PUSH1 0x20 SWAP1 DUP2 MSTORE PUSH1 0x40 DUP1 DUP4 KECCAK256 CALLER DUP5 MSTORE SWAP1 SWAP2 MSTORE SWAP1 KECCAK256 SLOAD PUSH2 0x3F8 SWAP1 DUP4 SWAP1 PUSH2 0xC3F JUMP JUMPDEST PUSH1 0x1 PUSH1 0x1 PUSH1 0xA0 SHL SUB DUP3 AND PUSH1 0x0 SWAP1 DUP2 MSTORE PUSH1 0x2 PUSH1 0x20 SWAP1 DUP2 MSTORE PUSH1 0x40 DUP1 DUP4 KECCAK256 CALLER DUP1 DUP6 MSTORE SWAP3 MSTORE SWAP1 SWAP2 KECCAK256 SWAP2 SWAP1 SWAP2 SSTORE PUSH2 0x42A SWAP1 DUP3 PUSH2 0x94C JUMP JUMPDEST CALLER PUSH1 0x0 SWAP1 DUP2 MSTORE PUSH1 0x3 PUSH1 0x20 MSTORE PUSH1 0x40 SWAP1 KECCAK256 SLOAD PUSH1 0x1 SUB PUSH2 0x484 JUMPI PUSH1 0x5 DUP1 SLOAD PUSH1 0x1 DUP2 ADD DUP3 SSTORE PUSH1 0x0 SWAP2 SWAP1 SWAP2 MSTORE PUSH32 0x36B6384B5ECA791C62761152D0C79BB0604C104A5FB6F4EB0703F3154BB3DB0 ADD DUP1 SLOAD PUSH1 0x1 PUSH1 0x1 PUSH1 0xA0 SHL SUB NOT AND CALLER OR SWAP1 SSTORE JUMPDEST POP POP JUMP JUMPDEST PUSH2 0x490 PUSH2 0x9B0 JUMP JUMPDEST PUSH1 0x1 DUP1 SLOAD DUP1 DUP3 ADD DUP3 SSTORE PUSH1 0x0 SWAP2 SWAP1 SWAP2 MSTORE PUSH32 0xB10E2D527612073B26EECDFD717E6A320CF44B4AFAC2B0732D9FCBE2B7FA0CF6 ADD DUP1 SLOAD PUSH1 0x1 PUSH1 0x1 PUSH1 0xA0 SHL SUB NOT AND PUSH1 0x1 PUSH1 0x1 PUSH1 0xA0 SHL SUB SWAP3 SWAP1 SWAP3 AND SWAP2 SWAP1 SWAP2 OR SWAP1 SSTORE JUMP JUMPDEST PUSH1 0x1 PUSH1 0x1 PUSH1 0xA0 SHL SUB DUP2 AND PUSH1 0x0 DUP2 DUP2 MSTORE PUSH1 0x2 PUSH1 0x20 SWAP1 DUP2 MSTORE PUSH1 0x40 DUP1 DUP4 KECCAK256 CALLER DUP1 DUP6 MSTORE SWAP1 DUP4 MSTORE DUP2 DUP5 KECCAK256 SLOAD DUP3 MLOAD PUSH4 0xA9059CBB PUSH1 0xE0 SHL DUP2 MSTORE PUSH1 0x4 DUP2 ADD SWAP3 SWAP1 SWAP3 MSTORE PUSH1 0x24 DUP3 ADD DUP2 SWAP1 MSTORE SWAP2 MLOAD SWAP2 SWAP5 DUP7 SWAP5 SWAP1 SWAP4 PUSH4 0xA9059CBB SWAP4 PUSH1 0x44 DUP1 DUP6 ADD SWAP5 SWAP3 SWAP4 SWAP2 SWAP3 DUP4 SWAP1 SUB ADD SWAP1 DUP3 SWAP1 DUP8 GAS CALL ISZERO DUP1 ISZERO PUSH2 0x555 JUMPI RETURNDATASIZE PUSH1 0x0 DUP1 RETURNDATACOPY RETURNDATASIZE PUSH1 0x0 REVERT JUMPDEST POP POP POP POP PUSH1 0x40 MLOAD RETURNDATASIZE PUSH1 0x1F NOT PUSH1 0x1F DUP3 ADD AND DUP3 ADD DUP1 PUSH1 0x40 MSTORE POP DUP2 ADD SWAP1 PUSH2 0x579 SWAP2 SWAP1 PUSH2 0xC07 JUMP JUMPDEST POP PUSH1 0x1 PUSH1 0x1 PUSH1 0xA0 SHL SUB DUP4 AND PUSH1 0x0 SWAP1 DUP2 MSTORE PUSH1 0x2 PUSH1 0x20 SWAP1 DUP2 MSTORE PUSH1 0x40 DUP1 DUP4 KECCAK256 CALLER DUP5 MSTORE DUP3 MSTORE DUP1 DUP4 KECCAK256 DUP4 SWAP1 SSTORE PUSH1 0x3 SWAP1 SWAP2 MSTORE DUP2 KECCAK256 DUP1 SLOAD PUSH1 0x1 SWAP3 SWAP1 PUSH2 0x5B8 SWAP1 DUP5 SWAP1 PUSH2 0xC57 JUMP JUMPDEST SWAP1 SWAP2 SSTORE POP POP POP POP POP JUMP JUMPDEST PUSH1 0x1 PUSH1 0x1 PUSH1 0xA0 SHL SUB DUP3 AND PUSH1 0x0 SWAP1 DUP2 MSTORE PUSH1 0x3 PUSH1 0x20 MSTORE PUSH1 0x40 DUP2 KECCAK256 SLOAD PUSH2 0x5E7 JUMPI POP PUSH1 0x0 PUSH2 0x64A JUMP JUMPDEST PUSH1 0x0 DUP1 PUSH2 0x5F3 DUP5 PUSH2 0xA0A JUMP JUMPDEST PUSH1 0x1 PUSH1 0x1 PUSH1 0xA0 SHL SUB DUP1 DUP8 AND PUSH1 0x0 SWAP1 DUP2 MSTORE PUSH1 0x2 PUSH1 0x20 SWAP1 DUP2 MSTORE PUSH1 0x40 DUP1 DUP4 KECCAK256 SWAP4 DUP12 AND DUP4 MSTORE SWAP3 SWAP1 MSTORE SWAP1 DUP2 KECCAK256 SLOAD SWAP3 SWAP5 POP SWAP1 SWAP3 POP SWAP1 PUSH2 0x62D SWAP1 DUP5 SWAP1 PUSH2 0xC6E JUMP JUMPDEST SWAP1 POP PUSH2 0x63A DUP3 PUSH1 0xA PUSH2 0xD71 JUMP JUMPDEST PUSH2 0x644 SWAP1 DUP3 PUSH2 0xD7D JUMP JUMPDEST SWAP4 POP POP POP POP JUMPDEST SWAP3 SWAP2 POP POP JUMP JUMPDEST PUSH1 0x1 DUP2 DUP2 SLOAD DUP2 LT PUSH2 0x660 JUMPI PUSH1 0x0 DUP1 REVERT JUMPDEST PUSH1 0x0 SWAP2 DUP3 MSTORE PUSH1 0x20 SWAP1 SWAP2 KECCAK256 ADD SLOAD PUSH1 0x1 PUSH1 0x1 PUSH1 0xA0 SHL SUB AND SWAP1 POP DUP2 JUMP JUMPDEST PUSH2 0x682 PUSH2 0x9B0 JUMP JUMPDEST PUSH1 0x0 JUMPDEST PUSH1 0x5 SLOAD DUP2 LT ISZERO PUSH2 0x752 JUMPI PUSH1 0x0 PUSH1 0x5 DUP3 DUP2 SLOAD DUP2 LT PUSH2 0x6A4 JUMPI PUSH2 0x6A4 PUSH2 0xD9F JUMP JUMPDEST PUSH1 0x0 SWAP2 DUP3 MSTORE PUSH1 0x20 DUP3 KECCAK256 ADD SLOAD PUSH1 0x1 PUSH1 0x1 PUSH1 0xA0 SHL SUB AND SWAP2 POP PUSH2 0x6C3 DUP3 PUSH2 0x79F JUMP JUMPDEST PUSH1 0x6 SLOAD PUSH1 0x40 MLOAD PUSH4 0xA9059CBB PUSH1 0xE0 SHL DUP2 MSTORE PUSH1 0x1 PUSH1 0x1 PUSH1 0xA0 SHL SUB DUP6 DUP2 AND PUSH1 0x4 DUP4 ADD MSTORE PUSH1 0x24 DUP3 ADD DUP5 SWAP1 MSTORE SWAP3 SWAP4 POP SWAP2 AND SWAP1 PUSH4 0xA9059CBB SWAP1 PUSH1 0x44 ADD PUSH1 0x20 PUSH1 0x40 MLOAD DUP1 DUP4 SUB DUP2 PUSH1 0x0 DUP8 GAS CALL ISZERO DUP1 ISZERO PUSH2 0x718 JUMPI RETURNDATASIZE PUSH1 0x0 DUP1 RETURNDATACOPY RETURNDATASIZE PUSH1 0x0 REVERT JUMPDEST POP POP POP POP PUSH1 0x40 MLOAD RETURNDATASIZE PUSH1 0x1F NOT PUSH1 0x1F DUP3 ADD AND DUP3 ADD DUP1 PUSH1 0x40 MSTORE POP DUP2 ADD SWAP1 PUSH2 0x73C SWAP2 SWAP1 PUSH2 0xC07 JUMP JUMPDEST POP POP POP DUP1 DUP1 PUSH2 0x74A SWAP1 PUSH2 0xDB5 JUMP JUMPDEST SWAP2 POP POP PUSH2 0x685 JUMP JUMPDEST POP JUMP JUMPDEST PUSH2 0x75D PUSH2 0x9B0 JUMP JUMPDEST PUSH2 0x767 PUSH1 0x0 PUSH2 0xB0A JUMP JUMPDEST JUMP JUMPDEST PUSH2 0x771 PUSH2 0x9B0 JUMP JUMPDEST PUSH1 0x1 PUSH1 0x1 PUSH1 0xA0 SHL SUB SWAP2 DUP3 AND PUSH1 0x0 SWAP1 DUP2 MSTORE PUSH1 0x4 PUSH1 0x20 MSTORE PUSH1 0x40 SWAP1 KECCAK256 DUP1 SLOAD PUSH1 0x1 PUSH1 0x1 PUSH1 0xA0 SHL SUB NOT AND SWAP2 SWAP1 SWAP3 AND OR SWAP1 SSTORE JUMP JUMPDEST PUSH1 0x1 PUSH1 0x1 PUSH1 0xA0 SHL SUB DUP2 AND PUSH1 0x0 SWAP1 DUP2 MSTORE PUSH1 0x3 PUSH1 0x20 MSTORE PUSH1 0x40 DUP2 KECCAK256 SLOAD DUP2 SWAP1 PUSH2 0x7FA JUMPI PUSH1 0x40 MLOAD PUSH3 0x461BCD PUSH1 0xE5 SHL DUP2 MSTORE PUSH1 0x20 PUSH1 0x4 DUP3 ADD MSTORE PUSH1 0x11 PUSH1 0x24 DUP3 ADD MSTORE PUSH17 0x2737903A37B5B2B7399039BA30B5B2B217 PUSH1 0x79 SHL PUSH1 0x44 DUP3 ADD MSTORE PUSH1 0x64 ADD PUSH2 0x2E3 JUMP JUMPDEST PUSH1 0x0 JUMPDEST PUSH1 0x1 SLOAD DUP2 LT ISZERO PUSH2 0x856 JUMPI PUSH2 0x838 DUP5 PUSH1 0x1 DUP4 DUP2 SLOAD DUP2 LT PUSH2 0x81E JUMPI PUSH2 0x81E PUSH2 0xD9F JUMP JUMPDEST PUSH1 0x0 SWAP2 DUP3 MSTORE PUSH1 0x20 SWAP1 SWAP2 KECCAK256 ADD SLOAD PUSH1 0x1 PUSH1 0x1 PUSH1 0xA0 SHL SUB AND PUSH2 0x5C2 JUMP JUMPDEST PUSH2 0x842 SWAP1 DUP4 PUSH2 0xC3F JUMP JUMPDEST SWAP2 POP DUP1 PUSH2 0x84E DUP2 PUSH2 0xDB5 JUMP JUMPDEST SWAP2 POP POP PUSH2 0x7FD JUMP JUMPDEST POP SWAP3 SWAP2 POP POP JUMP JUMPDEST PUSH2 0x865 PUSH2 0x9B0 JUMP JUMPDEST PUSH1 0x1 PUSH1 0x1 PUSH1 0xA0 SHL SUB DUP2 AND PUSH2 0x8CA JUMPI PUSH1 0x40 MLOAD PUSH3 0x461BCD PUSH1 0xE5 SHL DUP2 MSTORE PUSH1 0x20 PUSH1 0x4 DUP3 ADD MSTORE PUSH1 0x26 PUSH1 0x24 DUP3 ADD MSTORE PUSH32 0x4F776E61626C653A206E6577206F776E657220697320746865207A65726F2061 PUSH1 0x44 DUP3 ADD MSTORE PUSH6 0x646472657373 PUSH1 0xD0 SHL PUSH1 0x64 DUP3 ADD MSTORE PUSH1 0x84 ADD PUSH2 0x2E3 JUMP JUMPDEST PUSH2 0x752 DUP2 PUSH2 0xB0A JUMP JUMPDEST PUSH1 0x5 DUP2 DUP2 SLOAD DUP2 LT PUSH2 0x660 JUMPI PUSH1 0x0 DUP1 REVERT JUMPDEST PUSH1 0x0 DUP1 JUMPDEST PUSH1 0x1 SLOAD DUP2 LT ISZERO PUSH2 0x943 JUMPI DUP3 PUSH1 0x1 PUSH1 0x1 PUSH1 0xA0 SHL SUB AND PUSH1 0x1 DUP3 DUP2 SLOAD DUP2 LT PUSH2 0x90E JUMPI PUSH2 0x90E PUSH2 0xD9F JUMP JUMPDEST PUSH1 0x0 SWAP2 DUP3 MSTORE PUSH1 0x20 SWAP1 SWAP2 KECCAK256 ADD SLOAD PUSH1 0x1 PUSH1 0x1 PUSH1 0xA0 SHL SUB AND SUB PUSH2 0x931 JUMPI POP PUSH1 0x1 SWAP3 SWAP2 POP POP JUMP JUMPDEST DUP1 PUSH2 0x93B DUP2 PUSH2 0xDB5 JUMP JUMPDEST SWAP2 POP POP PUSH2 0x8E7 JUMP JUMPDEST POP PUSH1 0x0 SWAP3 SWAP2 POP POP JUMP JUMPDEST PUSH2 0x954 PUSH2 0x9B0 JUMP JUMPDEST PUSH1 0x1 PUSH1 0x1 PUSH1 0xA0 SHL SUB DUP1 DUP4 AND PUSH1 0x0 SWAP1 DUP2 MSTORE PUSH1 0x2 PUSH1 0x20 SWAP1 DUP2 MSTORE PUSH1 0x40 DUP1 DUP4 KECCAK256 SWAP4 DUP6 AND DUP4 MSTORE SWAP3 SWAP1 MSTORE KECCAK256 SLOAD PUSH2 0x484 JUMPI PUSH1 0x1 PUSH1 0x1 PUSH1 0xA0 SHL SUB DUP3 AND PUSH1 0x0 SWAP1 DUP2 MSTORE PUSH1 0x3 PUSH1 0x20 MSTORE PUSH1 0x40 DUP2 KECCAK256 DUP1 SLOAD PUSH1 0x1 SWAP3 SWAP1 PUSH2 0x9A7 SWAP1 DUP5 SWAP1 PUSH2 0xC3F JUMP JUMPDEST SWAP1 SWAP2 SSTORE POP POP POP POP JUMP JUMPDEST PUSH1 0x0 SLOAD PUSH1 0x1 PUSH1 0x1 PUSH1 0xA0 SHL SUB AND CALLER EQ PUSH2 0x767 JUMPI PUSH1 0x40 MLOAD PUSH3 0x461BCD PUSH1 0xE5 SHL DUP2 MSTORE PUSH1 0x20 PUSH1 0x4 DUP3 ADD DUP2 SWAP1 MSTORE PUSH1 0x24 DUP3 ADD MSTORE PUSH32 0x4F776E61626C653A2063616C6C6572206973206E6F7420746865206F776E6572 PUSH1 0x44 DUP3 ADD MSTORE PUSH1 0x64 ADD PUSH2 0x2E3 JUMP JUMPDEST PUSH1 0x1 PUSH1 0x1 PUSH1 0xA0 SHL SUB DUP1 DUP3 AND PUSH1 0x0 SWAP1 DUP2 MSTORE PUSH1 0x4 PUSH1 0x20 DUP2 SWAP1 MSTORE PUSH1 0x40 DUP1 DUP4 KECCAK256 SLOAD DUP2 MLOAD PUSH4 0x3FABE5A3 PUSH1 0xE2 SHL DUP2 MSTORE SWAP2 MLOAD SWAP4 SWAP5 DUP6 SWAP5 SWAP2 AND SWAP3 DUP4 SWAP3 DUP6 SWAP3 DUP5 SWAP3 PUSH4 0xFEAF968C SWAP3 DUP1 DUP3 ADD SWAP3 PUSH1 0xA0 SWAP3 SWAP1 SWAP2 DUP3 SWAP1 SUB ADD DUP2 DUP7 GAS STATICCALL ISZERO DUP1 ISZERO PUSH2 0xA6A JUMPI RETURNDATASIZE PUSH1 0x0 DUP1 RETURNDATACOPY RETURNDATASIZE PUSH1 0x0 REVERT JUMPDEST POP POP POP POP PUSH1 0x40 MLOAD RETURNDATASIZE PUSH1 0x1F NOT PUSH1 0x1F DUP3 ADD AND DUP3 ADD DUP1 PUSH1 0x40 MSTORE POP DUP2 ADD SWAP1 PUSH2 0xA8E SWAP2 SWAP1 PUSH2 0xDE8 JUMP JUMPDEST POP POP POP SWAP2 POP POP PUSH1 0x0 DUP3 PUSH1 0x1 PUSH1 0x1 PUSH1 0xA0 SHL SUB AND PUSH4 0x313CE567 PUSH1 0x40 MLOAD DUP2 PUSH4 0xFFFFFFFF AND PUSH1 0xE0 SHL DUP2 MSTORE PUSH1 0x4 ADD PUSH1 0x20 PUSH1 0x40 MLOAD DUP1 DUP4 SUB DUP2 DUP7 GAS STATICCALL ISZERO DUP1 ISZERO PUSH2 0xAD4 JUMPI RETURNDATASIZE PUSH1 0x0 DUP1 RETURNDATACOPY RETURNDATASIZE PUSH1 0x0 REVERT JUMPDEST POP POP POP POP PUSH1 0x40 MLOAD RETURNDATASIZE PUSH1 0x1F NOT PUSH1 0x1F DUP3 ADD AND DUP3 ADD DUP1 PUSH1 0x40 MSTORE POP DUP2 ADD SWAP1 PUSH2 0xAF8 SWAP2 SWAP1 PUSH2 0xE38 JUMP JUMPDEST SWAP2 SWAP8 PUSH1 0xFF SWAP1 SWAP3 AND SWAP7 POP SWAP1 SWAP5 POP POP POP POP POP JUMP JUMPDEST PUSH1 0x0 DUP1 SLOAD PUSH1 0x1 PUSH1 0x1 PUSH1 0xA0 SHL SUB DUP4 DUP2 AND PUSH1 0x1 PUSH1 0x1 PUSH1 0xA0 SHL SUB NOT DUP4 AND DUP2 OR DUP5 SSTORE PUSH1 0x40 MLOAD SWAP2 SWAP1 SWAP3 AND SWAP3 DUP4 SWAP2 PUSH32 0x8BE0079C531659141344CD1FD0A4F28419497F9722A3DAAFE3B4186F6B6457E0 SWAP2 SWAP1 LOG3 POP POP JUMP JUMPDEST DUP1 CALLDATALOAD PUSH1 0x1 PUSH1 0x1 PUSH1 0xA0 SHL SUB DUP2 AND DUP2 EQ PUSH2 0xB71 JUMPI PUSH1 0x0 DUP1 REVERT JUMPDEST SWAP2 SWAP1 POP JUMP JUMPDEST PUSH1 0x0 DUP1 PUSH1 0x40 DUP4 DUP6 SUB SLT ISZERO PUSH2 0xB89 JUMPI PUSH1 0x0 DUP1 REVERT JUMPDEST DUP3 CALLDATALOAD SWAP2 POP PUSH2 0xB99 PUSH1 0x20 DUP5 ADD PUSH2 0xB5A JUMP JUMPDEST SWAP1 POP SWAP3 POP SWAP3 SWAP1 POP JUMP JUMPDEST PUSH1 0x0 PUSH1 0x20 DUP3 DUP5 SUB SLT ISZERO PUSH2 0xBB4 JUMPI PUSH1 0x0 DUP1 REVERT JUMPDEST PUSH2 0xBBD DUP3 PUSH2 0xB5A JUMP JUMPDEST SWAP4 SWAP3 POP POP POP JUMP JUMPDEST PUSH1 0x0 DUP1 PUSH1 0x40 DUP4 DUP6 SUB SLT ISZERO PUSH2 0xBD7 JUMPI PUSH1 0x0 DUP1 REVERT JUMPDEST PUSH2 0xBE0 DUP4 PUSH2 0xB5A JUMP JUMPDEST SWAP2 POP PUSH2 0xB99 PUSH1 0x20 DUP5 ADD PUSH2 0xB5A JUMP JUMPDEST PUSH1 0x0 PUSH1 0x20 DUP3 DUP5 SUB SLT ISZERO PUSH2 0xC00 JUMPI PUSH1 0x0 DUP1 REVERT JUMPDEST POP CALLDATALOAD SWAP2 SWAP1 POP JUMP JUMPDEST PUSH1 0x0 PUSH1 0x20 DUP3 DUP5 SUB SLT ISZERO PUSH2 0xC19 JUMPI PUSH1 0x0 DUP1 REVERT JUMPDEST DUP2 MLOAD DUP1 ISZERO ISZERO DUP2 EQ PUSH2 0xBBD JUMPI PUSH1 0x0 DUP1 REVERT JUMPDEST PUSH4 0x4E487B71 PUSH1 0xE0 SHL PUSH1 0x0 MSTORE PUSH1 0x11 PUSH1 0x4 MSTORE PUSH1 0x24 PUSH1 0x0 REVERT JUMPDEST PUSH1 0x0 DUP3 NOT DUP3 GT ISZERO PUSH2 0xC52 JUMPI PUSH2 0xC52 PUSH2 0xC29 JUMP JUMPDEST POP ADD SWAP1 JUMP JUMPDEST PUSH1 0x0 DUP3 DUP3 LT ISZERO PUSH2 0xC69 JUMPI PUSH2 0xC69 PUSH2 0xC29 JUMP JUMPDEST POP SUB SWAP1 JUMP JUMPDEST PUSH1 0x0 DUP2 PUSH1 0x0 NOT DIV DUP4 GT DUP3 ISZERO ISZERO AND ISZERO PUSH2 0xC88 JUMPI PUSH2 0xC88 PUSH2 0xC29 JUMP JUMPDEST POP MUL SWAP1 JUMP JUMPDEST PUSH1 0x1 DUP2 DUP2 JUMPDEST DUP1 DUP6 GT ISZERO PUSH2 0xCC8 JUMPI DUP2 PUSH1 0x0 NOT DIV DUP3 GT ISZERO PUSH2 0xCAE JUMPI PUSH2 0xCAE PUSH2 0xC29 JUMP JUMPDEST DUP1 DUP6 AND ISZERO PUSH2 0xCBB JUMPI SWAP2 DUP2 MUL SWAP2 JUMPDEST SWAP4 DUP5 SHR SWAP4 SWAP1 DUP1 MUL SWAP1 PUSH2 0xC92 JUMP JUMPDEST POP SWAP3 POP SWAP3 SWAP1 POP JUMP JUMPDEST PUSH1 0x0 DUP3 PUSH2 0xCDF JUMPI POP PUSH1 0x1 PUSH2 0x64A JUMP JUMPDEST DUP2 PUSH2 0xCEC JUMPI POP PUSH1 0x0 PUSH2 0x64A JUMP JUMPDEST DUP2 PUSH1 0x1 DUP2 EQ PUSH2 0xD02 JUMPI PUSH1 0x2 DUP2 EQ PUSH2 0xD0C JUMPI PUSH2 0xD28 JUMP JUMPDEST PUSH1 0x1 SWAP2 POP POP PUSH2 0x64A JUMP JUMPDEST PUSH1 0xFF DUP5 GT ISZERO PUSH2 0xD1D JUMPI PUSH2 0xD1D PUSH2 0xC29 JUMP JUMPDEST POP POP PUSH1 0x1 DUP3 SHL PUSH2 0x64A JUMP JUMPDEST POP PUSH1 0x20 DUP4 LT PUSH2 0x133 DUP4 LT AND PUSH1 0x4E DUP5 LT PUSH1 0xB DUP5 LT AND OR ISZERO PUSH2 0xD4B JUMPI POP DUP2 DUP2 EXP PUSH2 0x64A JUMP JUMPDEST PUSH2 0xD55 DUP4 DUP4 PUSH2 0xC8D JUMP JUMPDEST DUP1 PUSH1 0x0 NOT DIV DUP3 GT ISZERO PUSH2 0xD69 JUMPI PUSH2 0xD69 PUSH2 0xC29 JUMP JUMPDEST MUL SWAP4 SWAP3 POP POP POP JUMP JUMPDEST PUSH1 0x0 PUSH2 0xBBD DUP4 DUP4 PUSH2 0xCD0 JUMP JUMPDEST PUSH1 0x0 DUP3 PUSH2 0xD9A JUMPI PUSH4 0x4E487B71 PUSH1 0xE0 SHL PUSH1 0x0 MSTORE PUSH1 0x12 PUSH1 0x4 MSTORE PUSH1 0x24 PUSH1 0x0 REVERT JUMPDEST POP DIV SWAP1 JUMP JUMPDEST PUSH4 0x4E487B71 PUSH1 0xE0 SHL PUSH1 0x0 MSTORE PUSH1 0x32 PUSH1 0x4 MSTORE PUSH1 0x24 PUSH1 0x0 REVERT JUMPDEST PUSH1 0x0 PUSH1 0x1 DUP3 ADD PUSH2 0xDC7 JUMPI PUSH2 0xDC7 PUSH2 0xC29 JUMP JUMPDEST POP PUSH1 0x1 ADD SWAP1 JUMP JUMPDEST DUP1 MLOAD PUSH10 0xFFFFFFFFFFFFFFFFFFFF DUP2 AND DUP2 EQ PUSH2 0xB71 JUMPI PUSH1 0x0 DUP1 REVERT JUMPDEST PUSH1 0x0 DUP1 PUSH1 0x0 DUP1 PUSH1 0x0 PUSH1 0xA0 DUP7 DUP9 SUB SLT ISZERO PUSH2 0xE00 JUMPI PUSH1 0x0 DUP1 REVERT JUMPDEST PUSH2 0xE09 DUP7 PUSH2 0xDCE JUMP JUMPDEST SWAP5 POP PUSH1 0x20 DUP7 ADD MLOAD SWAP4 POP PUSH1 0x40 DUP7 ADD MLOAD SWAP3 POP PUSH1 0x60 DUP7 ADD MLOAD SWAP2 POP PUSH2 0xE2C PUSH1 0x80 DUP8 ADD PUSH2 0xDCE JUMP JUMPDEST SWAP1 POP SWAP3 SWAP6 POP SWAP3 SWAP6 SWAP1 SWAP4 POP JUMP JUMPDEST PUSH1 0x0 PUSH1 0x20 DUP3 DUP5 SUB SLT ISZERO PUSH2 0xE4A JUMPI PUSH1 0x0 DUP1 REVERT JUMPDEST DUP2 MLOAD PUSH1 0xFF DUP2 AND DUP2 EQ PUSH2 0xBBD JUMPI PUSH1 0x0 DUP1 REVERT INVALID LOG2 PUSH5 0x6970667358 0x22 SLT KECCAK256 0xEC SWAP1 KECCAK256 AND 0x23 SWAP8 0xE9 0x5C CALLDATACOPY 0xC6 0xB7 CALLVALUE SIGNEXTEND 0xB5 PUSH3 0xFBB89C 0xA5 SWAP15 0x4F 0x4C SWAP5 0xCF COINBASE 0xEA STATICCALL 0xC4 0xCF 0xD0 SWAP10 CALLCODE PUSH5 0x736F6C6343 STOP ADDMOD 0xF STOP CALLER ","sha1":"049d07a4d4a3c33b363291136e9724b61d00d387","source":"//stake tokens\n//unstake tokens\n//issue tokens\n//add allowed tokens\n// get ETH value\n// check the number of users who have ever used the app.\n//SPDX-License-Identifier: MIT\npragma solidity >=0.8.0 <0.9.0;\n\nimport \"@openzeppelin/contracts/access/Ownable.sol\";\nimport \"@openzeppelin/contracts/token/ERC20/IERC20.sol\";\nimport \"@chainlink/contracts/src/v0.8/interfaces/AggregatorV3Interface.sol\";\n\ncontract TokenFarm is Ownable {\n    //What tokens can be staked\n    address[] public allowedTokens;\n    // Mapping from tokenaddress, to sender to amount.\n    mapping(address => mapping(address => uint256)) public stakingBalance;\n    mapping(address => uint256) public uniqueTokensStaked;\n    mapping(address => address) public tokenToPriceFeedAddress;\n    address[] public stakers;\n    IERC20 public dappToken;\n\n    constructor(address _dappTokenAddress) {\n        dappToken = IERC20(_dappTokenAddress);\n    }\n\n    function setPriceFeedContract(address _token, address _priceFeed)\n        public\n        onlyOwner\n    {\n        tokenToPriceFeedAddress[_token] = _priceFeed;\n    }\n\n    function issueTokens() public onlyOwner {\n        for (\n            uint256 stakersIndex = 0;\n            stakersIndex < stakers.length;\n            stakersIndex++\n        ) {\n            address recipient = stakers[stakersIndex];\n            uint256 userTotalValue = getUserTotalValue(recipient);\n            dappToken.transfer(recipient, userTotalValue);\n            //Send them a token reward based on their total value locked.\n        }\n    }\n\n    function getUserTotalValue(address _userAddress) public returns (uint256) {\n        uint256 totalValue = 0;\n        require(uniqueTokensStaked[_userAddress] > 0, \"No tokens staked.\");\n        for (\n            uint256 allowedTokensIndex = 0;\n            allowedTokensIndex < allowedTokens.length;\n            allowedTokensIndex++\n        ) {\n            totalValue =\n                totalValue +\n                getSingleTokenValue(\n                    _userAddress,\n                    allowedTokens[allowedTokensIndex]\n                );\n        }\n        return totalValue;\n    }\n\n    function getSingleTokenValue(address _user, address _tokenAddress)\n        public\n        returns (uint256)\n    {\n        if (uniqueTokensStaked[_user] <= 0) {\n            return 0;\n        }\n        // price of token * amount staked\n        (uint256 valueOfToken, uint256 decimals) = getTokenValue(_tokenAddress);\n        uint256 value = stakingBalance[_tokenAddress][_user] * valueOfToken;\n        return (value / 10**decimals);\n    }\n\n    function getTokenValue(address _tokenAddress)\n        internal\n        returns (uint256, uint256)\n    {\n        //pricefeed Address\n        address priceFeedAddress = tokenToPriceFeedAddress[_tokenAddress];\n        AggregatorV3Interface priceFeed = AggregatorV3Interface(\n            priceFeedAddress\n        );\n        (, int256 price, , , ) = priceFeed.latestRoundData();\n        uint256 decimals = uint256(priceFeed.decimals());\n        uint256 finalPrice = uint256(price);\n        return (finalPrice, decimals);\n    }\n\n    function unstakeTokens(address _tokenAddress) public {\n        uint256 balance = stakingBalance[_tokenAddress][_msgSender()];\n        IERC20 token = IERC20(_tokenAddress);\n        token.transfer(_msgSender(), balance);\n        stakingBalance[_tokenAddress][_msgSender()] = 0;\n        uniqueTokensStaked[_msgSender()] -= 1;\n    }\n\n    function stakeTokens(uint256 _amount, address _tokenAddress) public {\n        require(_amount > 0, \"You have to add an amount greater than 0.\");\n        require(isAllowed(_tokenAddress), \"This token can't be staked.\");\n        IERC20(_tokenAddress).transferFrom(\n            _msgSender(),\n            address(this),\n            _amount\n        );\n        stakingBalance[_tokenAddress][_msgSender()] =\n            stakingBalance[_tokenAddress][_msgSender()] +\n            _amount;\n        updateUniqueTokensStaked(_msgSender(), _tokenAddress);\n        if (uniqueTokensStaked[_msgSender()] == 1) {\n            stakers.push(_msgSender());\n        }\n    }\n\n    function updateUniqueTokensStaked(address _sender, address _tokenAddress)\n        internal\n        onlyOwner\n    {\n        if (stakingBalance[_sender][_tokenAddress] <= 0) {\n            uniqueTokensStaked[_sender] += 1;\n        }\n    }\n\n    function addAllowedTokens(address _tokenAddress) public onlyOwner {\n        allowedTokens.push(_tokenAddress);\n    }\n\n    function isAllowed(address _tokenAddress) internal returns (bool) {\n        for (\n            uint256 tokenAddressIndex = 0;\n            tokenAddressIndex < allowedTokens.length;\n            tokenAddressIndex++\n        ) {\n            if (allowedTokens[tokenAddressIndex] == _tokenAddress) {\n                return true;\n            }\n        }\n        return false;\n    }\n}\n","sourcePath":"contracts/TokenFarm.sol","type":"contract","deployment":{"address":"0x7B4B15be36C2eA073a4916D379339c108B1923bB","chainid":"42","blockHeight":32901452}}